S01400004345502052656365697665722E73726563E3
S11300000C9438000C9455000C9455000C94550035
S11300100C9455000C9455000C9455000C94550008
S11300200C9455000C9455000C9455000C945500F8
S11300300C9455000C9455000C9455000C945500E8
S11300400C9455000C9455000C9455000C945500D8
S11300500C9455000C9455000C9455000C945500C8
S11300600C9455000C9455000C9455000C945500B8
S113007011241FBECFEFD4E0DEBFCDBF11E0A0E05E
S1130080B1E0EEE1F2E002C005900D92A630B107B6
S1130090D9F721E0A6E0B1E001C01D92A730B20774
S11300A0E1F70E9490000C940D010C94000087B3BA
S11300B0886087BB87B38B7F87BB88B3846088BB2A
S11300C01CBE85E080B98CB78E608CBF81B188611D
S11300D081B9089583B78F7783BF83B7886483BF5B
S11300E083B7806283BF83B78F7E83BF83B7836008
S11300F083BF87B3816087BB0895159BFECF83B907
S11301000895179BFECF83B10895882319F0813099
S113011021F008958AE081BF089588E281BF08959F
S1130120CF93DF93CDB7DEB72B970FB6F894DEBF2E
S11301300FBECDBF0E9457000E946A0080E00E945B
S1130140850081B38F7781BB82B38F7782BB1A829C
S11301501982FE01339689E0DF011D928A95E9F741
S113016000E010E0809106018130E1F018F0823067
S113017039F143C080E00E9485000DC00E948100D7
S11301808A3261F0E1E0F0E0EC0FFD1FE00FF11FB7
S113019080830F5F1F4F0A30110584F382E0809340
S11301A006012BC081E00E948500879BFECF82B3AD
S11301B08F7782BB8CE40E947D00109206011DC0E3
S11301C060E071E0CE0101960E940401892B39F4AC
S11301D081E30E947D0081E08093060105C080E3F5
S11301E00E947D0010920601FE0131968AE0DF0133
S11301F01D928A95E9F700E010E08FE493EC0197F3
S1130200F1F700C00000AECFFB01DC018D9101903D
S111021080190110D9F3990B0895F894FFCFCB
S109021E313241422300CD
S9030000FC
