S01400004345502052656365697665722E73726563E3
S11300000C9438000C944D000C944D000C944D004D
S11300100C944D000C944D000C944D000C944D0028
S11300200C944D000C944D000C944D000C944D0018
S11300300C944D000C944D000C944D000C944D0008
S11300400C944D000C944D000C944D000C944D00F8
S11300500C944D000C944D000C944D000C944D00E8
S11300600C944D000C944D000C944D000C944D00D8
S113007011241FBECFEFD4E0DEBFCDBF11E0A0E05E
S1130080B1E0EAE3F1E002C005900D92A230B107BD
S1130090D9F70E946C000C949B000C94000087B369
S11300A0826087BB84B38E7F84BB81B3806F81BB46
S11300B0089587B3886087BB87B38B7F87BB88B37A
S11300C0846088BB1CBE85E080B98CB78E608CBF11
S11300D081B1886181B908950E9459000E944F003E
S11300E08FEF84BB80910001882319F0813099F04F
S11300F0F9CF15BA159BFECF8AEA83B92FE38DE0B9
S113010093E0215080409040E1F700C0000081E07E
S113011080930001E7CF179BFECF83B185BB2FE30C
S11301208DE093E0215080409040E1F700C0000052
S10D013010920001D7CFF894FFCF1E
S105013A0100BE
S9030000FC
