S01400004345502052656365697665722E73726563E3
S11300000C9438000C9455000C9455000C94550035
S11300100C9455000C9455000C9455000C94550008
S11300200C9455000C9455000C9455000C945500F8
S11300300C9455000C9455000C9455000C945500E8
S11300400C9455000C9455000C9455000C945500D8
S11300500C9455000C9455000C9455000C945500C8
S11300600C9455000C9455000C9455000C945500B8
S113007011241FBECFEFD4E0DEBFCDBF11E0A0E05E
S1130080B1E0ECE0F2E002C005900D92A630B107B9
S1130090D9F721E0A6E0B1E001C01D92A730B20774
S11300A0E1F70E948D000C9404010C94000087B3C6
S11300B0886087BB87B38B7F87BB88B3846088BB2A
S11300C01CBE85E080B98CB78E608CBF81B188611D
S11300D081B9089583B78F7783BF83B7886483BF5B
S11300E083B7806283BF83B7836083BF87B3816034
S11300F087BB0895159BFECF83B90895179BFECF48
S113010083B10895882319F0813021F008958AE09D
S113011081BF089588E281BF0895CF93DF93CDB75F
S1130120DEB72B970FB6F894DEBF0FBECDBF0E948B
S113013057000E946A0080E00E94820081B38F779A
S113014081BB1A821982FE01339689E0DF011D9278
S11301508A95E9F700E010E0809106018130E1F032
S113016018F0823021F140C080E00E9482000DC06E
S11301700E947E008A3261F0E1E0F0E0EC0FFD1FA6
S1130180E00FF11F80830F5F1F4F0A30110584F3C6
S113019082E08093060128C081E00E948200879B50
S11301A0FECF8CE40E947A00109206011DC060E02C
S11301B071E0CE0101960E94FB00892B39F481E3A2
S11301C00E947A0081E08093060105C080E30E94CA
S11301D07A0010920601FE0131968AE0DF011D9239
S11301E08A95E9F700E010E08FE493EC0197F1F7CA
S11301F000C00000B1CFFB01DC018D91019080199A
S10F02000110D9F3990B0895F894FFCF76
S109020C313241422300DF
S9030000FC
