S01700004345502D5472616E736D69747465722E737265636B
S11300000C9438000C944A000C944A000C944A0056
S11300100C944A000C944A000C944A000C944A0034
S11300200C944A000C944A000C944A000C944A0024
S11300300C944A000C944A000C944A000C944A0014
S11300400C944A000C944A000C944A000C944A0004
S11300500C944A000C944A000C944A000C944A00F4
S11300600C944A000C944A000C944A000C944A00E4
S113007011241FBECFEFD4E0DEBFCDBF21E0A0E04E
S1130080B1E001C01D92A130B207E1F70E946900FE
S11300900C9498000C94000087B3826087BB84B3EF
S11300A08E7F84BB81B3806F81BB089587B38860E2
S11300B087BB87B38B7F87BB88B3846088BB1CBE38
S11300C085E080B98CB78E608CBF81B1886181B9BD
S11300D008950E9456000E944C008FEF84BB8091CB
S11300E00001882319F0813099F0F9CF15BA159BD6
S11300F0FECF8AEA83B92FE38DE093E0215080405C
S11301009040E1F700C0000081E080930001E7CF58
S1130110179BFECF83B185BB2FE38DE093E0215085
S113012080409040E1F700C0000010920001D7CF5A
S1070130F894FFCF6D
S9030000FC
