S01700004345502D5472616E736D69747465722E737265636B
S11300000C9438000C944A000C944A000C944A0056
S11300100C944A000C944A000C944A000C944A0034
S11300200C944A000C944A000C944A000C944A0024
S11300300C944A000C944A000C944A000C944A0014
S11300400C944A000C944A000C944A000C944A0004
S11300500C944A000C944A000C944A000C944A00F4
S11300600C944A000C944A000C944A000C944A00E4
S113007011241FBECFEFD4E0DEBFCDBF21E0A0E04E
S1130080B1E001C01D92A130B207E1F70E949200D5
S11300900C9463010C94000087B3826087BB84B323
S11300A08E7F84BB81B3806F81BB089587B38860E2
S11300B087BB87B38B7F87BB88B3846088BB1CBE38
S11300C085E080B98CB78E608CBF81B1886181B9BD
S11300D00895853451F018F4833469F004C08C34E5
S11300E041F0853521F080E0089586E8089581EC9B
S11300F0089587EC089586EC089588B38D7F88BBB6
S113010083B3813021F480B38F7090E0089580E14F
S113011090E00895159BFECF83B90895179BFECFF9
S113012083B10895CF93DF93CDB7DEB76F970FB642
S1130130F894DEBF0FBECDBF0E9456000E944C0053
S11301408FEF8ABBFE01319684E1DF011D928A950F
S1130150E9F781E3898382E38A8383E38B8381E400
S11301608C8384E38D8385E38E8386E38F8382E4AB
S1130170888787E3898788E38A8789E38B8783E491
S11301808C878AE28D8780E38E8783E28F8784E47D
S1130190888B1E8A1D8A769689E0DF011D928A95D6
S11301A0E9F700E010E080910001813081F138F03E
S11301B0823009F464C0833009F474C07DC085E4DE
S11301C00E9469008BBB0A30110521F481E0809301
S11301D0000172C00E947D00E1E0F0E0EC0FFD1F21
S11301E08E0F9F1FDC018C91882309F465C08A322D
S11301F021F481E0809300015FC0E5E1F0E0EC0FC1
S1130200FD1FE00FF11F80830F5F1F4F55C083E474
S11302100E9469008BBB00E010E00BC0E5E1F0E058
S1130220EC0FFD1FE00FF11F80810E948A000F5F19
S11302301F4FDE015596FD0101900020E9F731972B
S1130240EA1BFB0B0E171F0748F38AE20E948A0081
S1130250FE0175968AE0DF011D928A95E9F70E94F6
S11302608E00813331F483E08093000100E010E0DC
S113027023C082E08093000100E010E01DC08CE404
S11302800E9469008BBB0E947D00E1E0F0E0EC0F6E
S1130290FD1F8E0F9F1FDC018C918A3269F410922E
S11302A000010AC085E50E9469008BBB0E948E0094
S11302B08C34E1F710920001EFE4F3EC3197F1F79D
S10D02C000C0000070CFF894FFCFD7
S9030000FC
